{"abi":[{"type":"constructor","inputs":[{"name":"roleManagerAddress","type":"address","internalType":"address"}],"stateMutability":"nonpayable"},{"type":"function","name":"anchorKYC","inputs":[{"name":"user","type":"address","internalType":"address"},{"name":"ipfsCid","type":"string","internalType":"string"},{"name":"dataHash","type":"bytes32","internalType":"bytes32"}],"outputs":[],"stateMutability":"nonpayable"},{"type":"function","name":"getKYCVersion","inputs":[{"name":"user","type":"address","internalType":"address"},{"name":"version","type":"uint256","internalType":"uint256"}],"outputs":[{"name":"ipfsCid","type":"string","internalType":"string"},{"name":"dataHash","type":"bytes32","internalType":"bytes32"},{"name":"verifiedAt","type":"uint256","internalType":"uint256"},{"name":"verifiedBy","type":"address","internalType":"address"}],"stateMutability":"view"},{"type":"function","name":"getLatestKYC","inputs":[{"name":"user","type":"address","internalType":"address"}],"outputs":[{"name":"version","type":"uint256","internalType":"uint256"},{"name":"ipfsCid","type":"string","internalType":"string"},{"name":"dataHash","type":"bytes32","internalType":"bytes32"},{"name":"verifiedAt","type":"uint256","internalType":"uint256"},{"name":"verifiedBy","type":"address","internalType":"address"}],"stateMutability":"view"},{"type":"function","name":"getVersionCount","inputs":[{"name":"user","type":"address","internalType":"address"}],"outputs":[{"name":"","type":"uint256","internalType":"uint256"}],"stateMutability":"view"},{"type":"function","name":"grantAccess","inputs":[{"name":"bank","type":"address","internalType":"address"}],"outputs":[],"stateMutability":"nonpayable"},{"type":"function","name":"hasAccess","inputs":[{"name":"user","type":"address","internalType":"address"},{"name":"bank","type":"address","internalType":"address"}],"outputs":[{"name":"","type":"bool","internalType":"bool"}],"stateMutability":"view"},{"type":"function","name":"hasVerifiedKYC","inputs":[{"name":"user","type":"address","internalType":"address"}],"outputs":[{"name":"","type":"bool","internalType":"bool"}],"stateMutability":"view"},{"type":"function","name":"revokeAccess","inputs":[{"name":"bank","type":"address","internalType":"address"}],"outputs":[],"stateMutability":"nonpayable"},{"type":"function","name":"roleManager","inputs":[],"outputs":[{"name":"","type":"address","internalType":"contract RoleManager"}],"stateMutability":"view"},{"type":"event","name":"AccessGranted","inputs":[{"name":"user","type":"address","indexed":true,"internalType":"address"},{"name":"bank","type":"address","indexed":true,"internalType":"address"}],"anonymous":false},{"type":"event","name":"AccessRevoked","inputs":[{"name":"user","type":"address","indexed":true,"internalType":"address"},{"name":"bank","type":"address","indexed":true,"internalType":"address"}],"anonymous":false},{"type":"event","name":"KYCVerified","inputs":[{"name":"user","type":"address","indexed":true,"internalType":"address"},{"name":"version","type":"uint256","indexed":true,"internalType":"uint256"},{"name":"ipfsCid","type":"string","indexed":false,"internalType":"string"},{"name":"dataHash","type":"bytes32","indexed":false,"internalType":"bytes32"},{"name":"verifiedBy","type":"address","indexed":true,"internalType":"address"},{"name":"verifiedAt","type":"uint256","indexed":false,"internalType":"uint256"}],"anonymous":false}],"bytecode":{"object":"0x608060405234801561000f575f5ffd5b50604051611f97380380611f9783398181016040528101906100319190610142565b5f73ffffffffffffffffffffffffffffffffffffffff168173ffffffffffffffffffffffffffffffffffffffff160361009f576040517f08c379a0000000000000000000000000000000000000000000000000000000008152600401610096906101c7565b60405180910390fd5b805f5f6101000a81548173ffffffffffffffffffffffffffffffffffffffff021916908373ffffffffffffffffffffffffffffffffffffffff160217905550506101e5565b5f5ffd5b5f73ffffffffffffffffffffffffffffffffffffffff82169050919050565b5f610111826100e8565b9050919050565b61012181610107565b811461012b575f5ffd5b50565b5f8151905061013c81610118565b92915050565b5f60208284031215610157576101566100e4565b5b5f6101648482850161012e565b91505092915050565b5f82825260208201905092915050565b7f5a65726f206164647265737300000000000000000000000000000000000000005f82015250565b5f6101b1600c8361016d565b91506101bc8261017d565b602082019050919050565b5f6020820190508181035f8301526101de816101a5565b9050919050565b611da5806101f25f395ff3fe608060405234801561000f575f5ffd5b5060043610610090575f3560e01c80632b30f1ac116100645780632b30f1ac1461012e578063326586521461016157806385e6853114610195578063b6f76098146101b1578063ed41b4e9146101e157610090565b8062435da51461009457806305ce2f4d146100b25780630ae5e739146100e25780631709ef07146100fe575b5f5ffd5b61009c6101fd565b6040516100a9919061115a565b60405180910390f35b6100cc60048036038101906100c791906111b6565b610221565b6040516100d991906111fb565b60405180910390f35b6100fc60048036038101906100f791906111b6565b61026c565b005b61011860048036038101906101139190611214565b61049e565b60405161012591906111fb565b60405180910390f35b61014860048036038101906101439190611285565b61052c565b6040516101589493929190611369565b60405180910390f35b61017b600480360381019061017691906111b6565b610858565b60405161018c9594939291906113b3565b60405180910390f35b6101af60048036038101906101aa91906111b6565b610bbe565b005b6101cb60048036038101906101c691906111b6565b610caa565b6040516101d8919061140b565b60405180910390f35b6101fb60048036038101906101f691906114af565b610cf3565b005b5f5f9054906101000a900473ffffffffffffffffffffffffffffffffffffffff1681565b5f5f60015f8473ffffffffffffffffffffffffffffffffffffffff1673ffffffffffffffffffffffffffffffffffffffff1681526020019081526020015f2080549050119050919050565b5f73ffffffffffffffffffffffffffffffffffffffff168173ffffffffffffffffffffffffffffffffffffffff16036102da576040517f08c379a00000000000000000000000000000000000000000000000000000000081526004016102d19061156a565b60405180910390fd5b5f5f9054906101000a900473ffffffffffffffffffffffffffffffffffffffff1673ffffffffffffffffffffffffffffffffffffffff1663ec676a49826040518263ffffffff1660e01b81526004016103339190611588565b602060405180830381865afa15801561034e573d5f5f3e3d5ffd5b505050506040513d601f19601f8201168201806040525081019061037291906115cb565b6103b1576040517f08c379a00000000000000000000000000000000000000000000000000000000081526004016103a890611640565b60405180910390fd5b600160025f3373ffffffffffffffffffffffffffffffffffffffff1673ffffffffffffffffffffffffffffffffffffffff1681526020019081526020015f205f8373ffffffffffffffffffffffffffffffffffffffff1673ffffffffffffffffffffffffffffffffffffffff1681526020019081526020015f205f6101000a81548160ff0219169083151502179055508073ffffffffffffffffffffffffffffffffffffffff163373ffffffffffffffffffffffffffffffffffffffff167f9f520b3bfc56d06f7065d10b4683b3f57ac8895d5026cd176dee95ce1454cb8d60405160405180910390a350565b5f60025f8473ffffffffffffffffffffffffffffffffffffffff1673ffffffffffffffffffffffffffffffffffffffff1681526020019081526020015f205f8373ffffffffffffffffffffffffffffffffffffffff1673ffffffffffffffffffffffffffffffffffffffff1681526020019081526020015f205f9054906101000a900460ff16905092915050565b60605f5f5f858073ffffffffffffffffffffffffffffffffffffffff163373ffffffffffffffffffffffffffffffffffffffff1614806105ed575060025f8273ffffffffffffffffffffffffffffffffffffffff1673ffffffffffffffffffffffffffffffffffffffff1681526020019081526020015f205f3373ffffffffffffffffffffffffffffffffffffffff1673ffffffffffffffffffffffffffffffffffffffff1681526020019081526020015f205f9054906101000a900460ff165b61062c576040517f08c379a0000000000000000000000000000000000000000000000000000000008152600401610623906116a8565b60405180910390fd5b5f8611801561067b575060015f8873ffffffffffffffffffffffffffffffffffffffff1673ffffffffffffffffffffffffffffffffffffffff1681526020019081526020015f20805490508611155b6106ba576040517f08c379a00000000000000000000000000000000000000000000000000000000081526004016106b190611710565b60405180910390fd5b5f60015f8973ffffffffffffffffffffffffffffffffffffffff1673ffffffffffffffffffffffffffffffffffffffff1681526020019081526020015f20600188610705919061175b565b815481106107165761071561178e565b5b905f5260205f2090600502016040518060a00160405290815f8201548152602001600182018054610746906117e8565b80601f0160208091040260200160405190810160405280929190818152602001828054610772906117e8565b80156107bd5780601f10610794576101008083540402835291602001916107bd565b820191905f5260205f20905b8154815290600101906020018083116107a057829003601f168201915b505050505081526020016002820154815260200160038201548152602001600482015f9054906101000a900473ffffffffffffffffffffffffffffffffffffffff1673ffffffffffffffffffffffffffffffffffffffff1673ffffffffffffffffffffffffffffffffffffffff1681525050905080602001518160400151826060015183608001519550955095509550505092959194509250565b5f60605f5f5f858073ffffffffffffffffffffffffffffffffffffffff163373ffffffffffffffffffffffffffffffffffffffff16148061091a575060025f8273ffffffffffffffffffffffffffffffffffffffff1673ffffffffffffffffffffffffffffffffffffffff1681526020019081526020015f205f3373ffffffffffffffffffffffffffffffffffffffff1673ffffffffffffffffffffffffffffffffffffffff1681526020019081526020015f205f9054906101000a900460ff165b610959576040517f08c379a0000000000000000000000000000000000000000000000000000000008152600401610950906116a8565b60405180910390fd5b5f60015f8973ffffffffffffffffffffffffffffffffffffffff1673ffffffffffffffffffffffffffffffffffffffff1681526020019081526020015f2080549050116109db576040517f08c379a00000000000000000000000000000000000000000000000000000000081526004016109d290611862565b60405180910390fd5b5f60015f8973ffffffffffffffffffffffffffffffffffffffff1673ffffffffffffffffffffffffffffffffffffffff1681526020019081526020015f206001805f8b73ffffffffffffffffffffffffffffffffffffffff1673ffffffffffffffffffffffffffffffffffffffff1681526020019081526020015f2080549050610a65919061175b565b81548110610a7657610a7561178e565b5b905f5260205f2090600502016040518060a00160405290815f8201548152602001600182018054610aa6906117e8565b80601f0160208091040260200160405190810160405280929190818152602001828054610ad2906117e8565b8015610b1d5780601f10610af457610100808354040283529160200191610b1d565b820191905f5260205f20905b815481529060010190602001808311610b0057829003601f168201915b505050505081526020016002820154815260200160038201548152602001600482015f9054906101000a900473ffffffffffffffffffffffffffffffffffffffff1673ffffffffffffffffffffffffffffffffffffffff1673ffffffffffffffffffffffffffffffffffffffff16815250509050805f0151816020015182604001518360600151846080015196509650965096509650505091939590929450565b5f60025f3373ffffffffffffffffffffffffffffffffffffffff1673ffffffffffffffffffffffffffffffffffffffff1681526020019081526020015f205f8373ffffffffffffffffffffffffffffffffffffffff1673ffffffffffffffffffffffffffffffffffffffff1681526020019081526020015f205f6101000a81548160ff0219169083151502179055508073ffffffffffffffffffffffffffffffffffffffff163373ffffffffffffffffffffffffffffffffffffffff167f825c8be24eb0df19500f63e86c29e7d0d951e73056b889b891d85e40938d9b6e60405160405180910390a350565b5f60015f8373ffffffffffffffffffffffffffffffffffffffff1673ffffffffffffffffffffffffffffffffffffffff1681526020019081526020015f20805490509050919050565b5f5f9054906101000a900473ffffffffffffffffffffffffffffffffffffffff1673ffffffffffffffffffffffffffffffffffffffff166333105218336040518263ffffffff1660e01b8152600401610d4c9190611588565b602060405180830381865afa158015610d67573d5f5f3e3d5ffd5b505050506040513d601f19601f82011682018060405250810190610d8b91906115cb565b610dca576040517f08c379a0000000000000000000000000000000000000000000000000000000008152600401610dc1906118ca565b60405180910390fd5b5f73ffffffffffffffffffffffffffffffffffffffff168473ffffffffffffffffffffffffffffffffffffffff1603610e38576040517f08c379a0000000000000000000000000000000000000000000000000000000008152600401610e2f90611932565b60405180910390fd5b5f8383905011610e7d576040517f08c379a0000000000000000000000000000000000000000000000000000000008152600401610e749061199a565b60405180910390fd5b5f5f1b8103610ec1576040517f08c379a0000000000000000000000000000000000000000000000000000000008152600401610eb890611a02565b60405180910390fd5b5f6001805f8773ffffffffffffffffffffffffffffffffffffffff1673ffffffffffffffffffffffffffffffffffffffff1681526020019081526020015f2080549050610f0e9190611a20565b905060015f8673ffffffffffffffffffffffffffffffffffffffff1673ffffffffffffffffffffffffffffffffffffffff1681526020019081526020015f206040518060a0016040528083815260200186868080601f0160208091040260200160405190810160405280939291908181526020018383808284375f81840152601f19601f8201169050808301925050505050505081526020018481526020014281526020013373ffffffffffffffffffffffffffffffffffffffff16815250908060018154018082558091505060019003905f5260205f2090600502015f909190919091505f820151815f015560208201518160010190816110109190611c28565b5060408201518160020155606082015181600301556080820151816004015f6101000a81548173ffffffffffffffffffffffffffffffffffffffff021916908373ffffffffffffffffffffffffffffffffffffffff16021790555050503373ffffffffffffffffffffffffffffffffffffffff16818673ffffffffffffffffffffffffffffffffffffffff167fc99f1b22f4750f2bb9310e07c8954ab9f68c3e037b941db9cc781906b6065df6878787426040516110d19493929190611d31565b60405180910390a45050505050565b5f73ffffffffffffffffffffffffffffffffffffffff82169050919050565b5f819050919050565b5f61112261111d611118846110e0565b6110ff565b6110e0565b9050919050565b5f61113382611108565b9050919050565b5f61114482611129565b9050919050565b6111548161113a565b82525050565b5f60208201905061116d5f83018461114b565b92915050565b5f5ffd5b5f5ffd5b5f611185826110e0565b9050919050565b6111958161117b565b811461119f575f5ffd5b50565b5f813590506111b08161118c565b92915050565b5f602082840312156111cb576111ca611173565b5b5f6111d8848285016111a2565b91505092915050565b5f8115159050919050565b6111f5816111e1565b82525050565b5f60208201905061120e5f8301846111ec565b92915050565b5f5f6040838503121561122a57611229611173565b5b5f611237858286016111a2565b9250506020611248858286016111a2565b9150509250929050565b5f819050919050565b61126481611252565b811461126e575f5ffd5b50565b5f8135905061127f8161125b565b92915050565b5f5f6040838503121561129b5761129a611173565b5b5f6112a8858286016111a2565b92505060206112b985828601611271565b9150509250929050565b5f81519050919050565b5f82825260208201905092915050565b8281835e5f83830152505050565b5f601f19601f8301169050919050565b5f611305826112c3565b61130f81856112cd565b935061131f8185602086016112dd565b611328816112eb565b840191505092915050565b5f819050919050565b61134581611333565b82525050565b61135481611252565b82525050565b6113638161117b565b82525050565b5f6080820190508181035f83015261138181876112fb565b9050611390602083018661133c565b61139d604083018561134b565b6113aa606083018461135a565b95945050505050565b5f60a0820190506113c65f83018861134b565b81810360208301526113d881876112fb565b90506113e7604083018661133c565b6113f4606083018561134b565b611401608083018461135a565b9695505050505050565b5f60208201905061141e5f83018461134b565b92915050565b5f5ffd5b5f5ffd5b5f5ffd5b5f5f83601f84011261144557611444611424565b5b8235905067ffffffffffffffff81111561146257611461611428565b5b60208301915083600182028301111561147e5761147d61142c565b5b9250929050565b61148e81611333565b8114611498575f5ffd5b50565b5f813590506114a981611485565b92915050565b5f5f5f5f606085870312156114c7576114c6611173565b5b5f6114d4878288016111a2565b945050602085013567ffffffffffffffff8111156114f5576114f4611177565b5b61150187828801611430565b935093505060406115148782880161149b565b91505092959194509250565b7f5a65726f20616464726573732062616e6b0000000000000000000000000000005f82015250565b5f6115546011836112cd565b915061155f82611520565b602082019050919050565b5f6020820190508181035f83015261158181611548565b9050919050565b5f60208201905061159b5f83018461135a565b92915050565b6115aa816111e1565b81146115b4575f5ffd5b50565b5f815190506115c5816115a1565b92915050565b5f602082840312156115e0576115df611173565b5b5f6115ed848285016115b7565b91505092915050565b7f4e6f7420616e20617574686f72697a65642062616e6b000000000000000000005f82015250565b5f61162a6016836112cd565b9150611635826115f6565b602082019050919050565b5f6020820190508181035f8301526116578161161e565b9050919050565b7f4e6f20616363657373207065726d697373696f6e0000000000000000000000005f82015250565b5f6116926014836112cd565b915061169d8261165e565b602082019050919050565b5f6020820190508181035f8301526116bf81611686565b9050919050565b7f496e76616c69642076657273696f6e00000000000000000000000000000000005f82015250565b5f6116fa600f836112cd565b9150611705826116c6565b602082019050919050565b5f6020820190508181035f830152611727816116ee565b9050919050565b7f4e487b71000000000000000000000000000000000000000000000000000000005f52601160045260245ffd5b5f61176582611252565b915061177083611252565b92508282039050818111156117885761178761172e565b5b92915050565b7f4e487b71000000000000000000000000000000000000000000000000000000005f52603260045260245ffd5b7f4e487b71000000000000000000000000000000000000000000000000000000005f52602260045260245ffd5b5f60028204905060018216806117ff57607f821691505b602082108103611812576118116117bb565b5b50919050565b7f4e6f207665726966696564204b594300000000000000000000000000000000005f82015250565b5f61184c600f836112cd565b915061185782611818565b602082019050919050565b5f6020820190508181035f83015261187981611840565b9050919050565b7f4e6f7420616e20617574686f72697a65642076657269666965720000000000005f82015250565b5f6118b4601a836112cd565b91506118bf82611880565b602082019050919050565b5f6020820190508181035f8301526118e1816118a8565b9050919050565b7f5a65726f206164647265737320757365720000000000000000000000000000005f82015250565b5f61191c6011836112cd565b9150611927826118e8565b602082019050919050565b5f6020820190508181035f83015261194981611910565b9050919050565b7f456d7074792049504653204349440000000000000000000000000000000000005f82015250565b5f611984600e836112cd565b915061198f82611950565b602082019050919050565b5f6020820190508181035f8301526119b181611978565b9050919050565b7f456d7074792064617461206861736800000000000000000000000000000000005f82015250565b5f6119ec600f836112cd565b91506119f7826119b8565b602082019050919050565b5f6020820190508181035f830152611a19816119e0565b9050919050565b5f611a2a82611252565b9150611a3583611252565b9250828201905080821115611a4d57611a4c61172e565b5b92915050565b7f4e487b71000000000000000000000000000000000000000000000000000000005f52604160045260245ffd5b5f819050815f5260205f209050919050565b5f6020601f8301049050919050565b5f82821b905092915050565b5f60088302611adc7fffffffffffffffffffffffffffffffffffffffffffffffffffffffffffffffff82611aa1565b611ae68683611aa1565b95508019841693508086168417925050509392505050565b5f611b18611b13611b0e84611252565b6110ff565b611252565b9050919050565b5f819050919050565b611b3183611afe565b611b45611b3d82611b1f565b848454611aad565b825550505050565b5f5f905090565b611b5c611b4d565b611b67818484611b28565b505050565b5f5b82811015611b8d57611b825f828401611b54565b600181019050611b6e565b505050565b601f821115611be05782821115611bdf57611bac81611a80565b611bb583611a92565b611bbe85611a92565b6020861015611bcb575f90505b808301611bda82840382611b6c565b505050505b5b505050565b5f82821c905092915050565b5f611c005f1984600802611be5565b1980831691505092915050565b5f611c188383611bf1565b9150826002028217905092915050565b611c31826112c3565b67ffffffffffffffff811115611c4a57611c49611a53565b5b611c5482546117e8565b611c5f828285611b92565b5f60209050601f831160018114611c90575f8415611c7e578287015190505b611c888582611c0d565b865550611cef565b601f198416611c9e86611a80565b5f5b82811015611cc557848901518255600182019150602085019450602081019050611ca0565b86831015611ce25784890151611cde601f891682611bf1565b8355505b6001600288020188555050505b505050505050565b828183375f83830152505050565b5f611d1083856112cd565b9350611d1d838584611cf7565b611d26836112eb565b840190509392505050565b5f6060820190508181035f830152611d4a818688611d05565b9050611d59602083018561133c565b611d66604083018461134b565b9594505050505056fea2646970667358221220abfed7513dce8b3f9d81481347180895f818e072d58dddf6cdc35d5c762a926264736f6c63430008230033","linkReferences":{}},"methodIdentifiers":{"anchorKYC(address,string,bytes32)":"ed41b4e9","getKYCVersion(address,uint256)":"2b30f1ac","getLatestKYC(address)":"32658652","getVersionCount(address)":"b6f76098","grantAccess(address)":"0ae5e739","hasAccess(address,address)":"1709ef07","hasVerifiedKYC(address)":"05ce2f4d","revokeAccess(address)":"85e68531","roleManager()":"00435da5"},"id":21}