{"abi":[{"type":"constructor","inputs":[{"name":"roleManagerAddress","type":"address","internalType":"address"}],"stateMutability":"nonpayable"},{"type":"function","name":"anchorKYC","inputs":[{"name":"user","type":"address","internalType":"address"},{"name":"ipfsCid","type":"string","internalType":"string"},{"name":"dataHash","type":"bytes32","internalType":"bytes32"}],"outputs":[],"stateMutability":"nonpayable"},{"type":"function","name":"getKYCVersion","inputs":[{"name":"user","type":"address","internalType":"address"},{"name":"version","type":"uint256","internalType":"uint256"}],"outputs":[{"name":"ipfsCid","type":"string","internalType":"string"},{"name":"dataHash","type":"bytes32","internalType":"bytes32"},{"name":"verifiedAt","type":"uint256","internalType":"uint256"},{"name":"verifiedBy","type":"address","internalType":"address"}],"stateMutability":"view"},{"type":"function","name":"getLatestKYC","inputs":[{"name":"user","type":"address","internalType":"address"}],"outputs":[{"name":"version","type":"uint256","internalType":"uint256"},{"name":"ipfsCid","type":"string","internalType":"string"},{"name":"dataHash","type":"bytes32","internalType":"bytes32"},{"name":"verifiedAt","type":"uint256","internalType":"uint256"},{"name":"verifiedBy","type":"address","internalType":"address"}],"stateMutability":"view"},{"type":"function","name":"getVersionCount","inputs":[{"name":"user","type":"address","internalType":"address"}],"outputs":[{"name":"","type":"uint256","internalType":"uint256"}],"stateMutability":"view"},{"type":"function","name":"hasVerifiedKYC","inputs":[{"name":"user","type":"address","internalType":"address"}],"outputs":[{"name":"","type":"bool","internalType":"bool"}],"stateMutability":"view"},{"type":"function","name":"roleManager","inputs":[],"outputs":[{"name":"","type":"address","internalType":"contract RoleManager"}],"stateMutability":"view"},{"type":"event","name":"KYCVerified","inputs":[{"name":"user","type":"address","indexed":true,"internalType":"address"},{"name":"version","type":"uint256","indexed":true,"internalType":"uint256"},{"name":"ipfsCid","type":"string","indexed":false,"internalType":"string"},{"name":"dataHash","type":"bytes32","indexed":false,"internalType":"bytes32"},{"name":"verifiedBy","type":"address","indexed":true,"internalType":"address"},{"name":"verifiedAt","type":"uint256","indexed":false,"internalType":"uint256"}],"anonymous":false}],"bytecode":{"object":"0x608060405234801561000f575f5ffd5b506040516117e43803806117e483398181016040528101906100319190610142565b5f73ffffffffffffffffffffffffffffffffffffffff168173ffffffffffffffffffffffffffffffffffffffff160361009f576040517f08c379a0000000000000000000000000000000000000000000000000000000008152600401610096906101c7565b60405180910390fd5b805f5f6101000a81548173ffffffffffffffffffffffffffffffffffffffff021916908373ffffffffffffffffffffffffffffffffffffffff160217905550506101e5565b5f5ffd5b5f73ffffffffffffffffffffffffffffffffffffffff82169050919050565b5f610111826100e8565b9050919050565b61012181610107565b811461012b575f5ffd5b50565b5f8151905061013c81610118565b92915050565b5f60208284031215610157576101566100e4565b5b5f6101648482850161012e565b91505092915050565b5f82825260208201905092915050565b7f5a65726f206164647265737300000000000000000000000000000000000000005f82015250565b5f6101b1600c8361016d565b91506101bc8261017d565b602082019050919050565b5f6020820190508181035f8301526101de816101a5565b9050919050565b6115f2806101f25f395ff3fe608060405234801561000f575f5ffd5b506004361061005f575f3560e01c8062435da51461006357806305ce2f4d146100815780632b30f1ac146100b157806332658652146100e4578063b6f7609814610118578063ed41b4e914610148575b5f5ffd5b61006b610164565b6040516100789190610b1d565b60405180910390f35b61009b60048036038101906100969190610b79565b610188565b6040516100a89190610bbe565b60405180910390f35b6100cb60048036038101906100c69190610c0a565b6101d3565b6040516100db9493929190610cee565b60405180910390f35b6100fe60048036038101906100f99190610b79565b610403565b60405161010f959493929190610d38565b60405180910390f35b610132600480360381019061012d9190610b79565b61066d565b60405161013f9190610d90565b60405180910390f35b610162600480360381019061015d9190610e34565b6106b6565b005b5f5f9054906101000a900473ffffffffffffffffffffffffffffffffffffffff1681565b5f5f60015f8473ffffffffffffffffffffffffffffffffffffffff1673ffffffffffffffffffffffffffffffffffffffff1681526020019081526020015f2080549050119050919050565b60605f5f5f5f85118015610227575060015f8773ffffffffffffffffffffffffffffffffffffffff1673ffffffffffffffffffffffffffffffffffffffff1681526020019081526020015f20805490508511155b610266576040517f08c379a000000000000000000000000000000000000000000000000000000000815260040161025d90610eef565b60405180910390fd5b5f60015f8873ffffffffffffffffffffffffffffffffffffffff1673ffffffffffffffffffffffffffffffffffffffff1681526020019081526020015f206001876102b19190610f3a565b815481106102c2576102c1610f6d565b5b905f5260205f2090600502016040518060a00160405290815f82015481526020016001820180546102f290610fc7565b80601f016020809104026020016040519081016040528092919081815260200182805461031e90610fc7565b80156103695780601f1061034057610100808354040283529160200191610369565b820191905f5260205f20905b81548152906001019060200180831161034c57829003601f168201915b505050505081526020016002820154815260200160038201548152602001600482015f9054906101000a900473ffffffffffffffffffffffffffffffffffffffff1673ffffffffffffffffffffffffffffffffffffffff1673ffffffffffffffffffffffffffffffffffffffff16815250509050806020015181604001518260600151836080015194509450945094505092959194509250565b5f60605f5f5f5f60015f8873ffffffffffffffffffffffffffffffffffffffff1673ffffffffffffffffffffffffffffffffffffffff1681526020019081526020015f20805490501161048b576040517f08c379a000000000000000000000000000000000000000000000000000000000815260040161048290611041565b60405180910390fd5b5f60015f8873ffffffffffffffffffffffffffffffffffffffff1673ffffffffffffffffffffffffffffffffffffffff1681526020019081526020015f206001805f8a73ffffffffffffffffffffffffffffffffffffffff1673ffffffffffffffffffffffffffffffffffffffff1681526020019081526020015f20805490506105159190610f3a565b8154811061052657610525610f6d565b5b905f5260205f2090600502016040518060a00160405290815f820154815260200160018201805461055690610fc7565b80601f016020809104026020016040519081016040528092919081815260200182805461058290610fc7565b80156105cd5780601f106105a4576101008083540402835291602001916105cd565b820191905f5260205f20905b8154815290600101906020018083116105b057829003601f168201915b505050505081526020016002820154815260200160038201548152602001600482015f9054906101000a900473ffffffffffffffffffffffffffffffffffffffff1673ffffffffffffffffffffffffffffffffffffffff1673ffffffffffffffffffffffffffffffffffffffff16815250509050805f01518160200151826040015183606001518460800151955095509550955095505091939590929450565b5f60015f8373ffffffffffffffffffffffffffffffffffffffff1673ffffffffffffffffffffffffffffffffffffffff1681526020019081526020015f20805490509050919050565b5f5f9054906101000a900473ffffffffffffffffffffffffffffffffffffffff1673ffffffffffffffffffffffffffffffffffffffff166333105218336040518263ffffffff1660e01b815260040161070f919061105f565b602060405180830381865afa15801561072a573d5f5f3e3d5ffd5b505050506040513d601f19601f8201168201806040525081019061074e91906110a2565b61078d576040517f08c379a000000000000000000000000000000000000000000000000000000000815260040161078490611117565b60405180910390fd5b5f73ffffffffffffffffffffffffffffffffffffffff168473ffffffffffffffffffffffffffffffffffffffff16036107fb576040517f08c379a00000000000000000000000000000000000000000000000000000000081526004016107f29061117f565b60405180910390fd5b5f8383905011610840576040517f08c379a0000000000000000000000000000000000000000000000000000000008152600401610837906111e7565b60405180910390fd5b5f5f1b8103610884576040517f08c379a000000000000000000000000000000000000000000000000000000000815260040161087b9061124f565b60405180910390fd5b5f6001805f8773ffffffffffffffffffffffffffffffffffffffff1673ffffffffffffffffffffffffffffffffffffffff1681526020019081526020015f20805490506108d1919061126d565b905060015f8673ffffffffffffffffffffffffffffffffffffffff1673ffffffffffffffffffffffffffffffffffffffff1681526020019081526020015f206040518060a0016040528083815260200186868080601f0160208091040260200160405190810160405280939291908181526020018383808284375f81840152601f19601f8201169050808301925050505050505081526020018481526020014281526020013373ffffffffffffffffffffffffffffffffffffffff16815250908060018154018082558091505060019003905f5260205f2090600502015f909190919091505f820151815f015560208201518160010190816109d39190611475565b5060408201518160020155606082015181600301556080820151816004015f6101000a81548173ffffffffffffffffffffffffffffffffffffffff021916908373ffffffffffffffffffffffffffffffffffffffff16021790555050503373ffffffffffffffffffffffffffffffffffffffff16818673ffffffffffffffffffffffffffffffffffffffff167fc99f1b22f4750f2bb9310e07c8954ab9f68c3e037b941db9cc781906b6065df687878742604051610a94949392919061157e565b60405180910390a45050505050565b5f73ffffffffffffffffffffffffffffffffffffffff82169050919050565b5f819050919050565b5f610ae5610ae0610adb84610aa3565b610ac2565b610aa3565b9050919050565b5f610af682610acb565b9050919050565b5f610b0782610aec565b9050919050565b610b1781610afd565b82525050565b5f602082019050610b305f830184610b0e565b92915050565b5f5ffd5b5f5ffd5b5f610b4882610aa3565b9050919050565b610b5881610b3e565b8114610b62575f5ffd5b50565b5f81359050610b7381610b4f565b92915050565b5f60208284031215610b8e57610b8d610b36565b5b5f610b9b84828501610b65565b91505092915050565b5f8115159050919050565b610bb881610ba4565b82525050565b5f602082019050610bd15f830184610baf565b92915050565b5f819050919050565b610be981610bd7565b8114610bf3575f5ffd5b50565b5f81359050610c0481610be0565b92915050565b5f5f60408385031215610c2057610c1f610b36565b5b5f610c2d85828601610b65565b9250506020610c3e85828601610bf6565b9150509250929050565b5f81519050919050565b5f82825260208201905092915050565b8281835e5f83830152505050565b5f601f19601f8301169050919050565b5f610c8a82610c48565b610c948185610c52565b9350610ca4818560208601610c62565b610cad81610c70565b840191505092915050565b5f819050919050565b610cca81610cb8565b82525050565b610cd981610bd7565b82525050565b610ce881610b3e565b82525050565b5f6080820190508181035f830152610d068187610c80565b9050610d156020830186610cc1565b610d226040830185610cd0565b610d2f6060830184610cdf565b95945050505050565b5f60a082019050610d4b5f830188610cd0565b8181036020830152610d5d8187610c80565b9050610d6c6040830186610cc1565b610d796060830185610cd0565b610d866080830184610cdf565b9695505050505050565b5f602082019050610da35f830184610cd0565b92915050565b5f5ffd5b5f5ffd5b5f5ffd5b5f5f83601f840112610dca57610dc9610da9565b5b8235905067ffffffffffffffff811115610de757610de6610dad565b5b602083019150836001820283011115610e0357610e02610db1565b5b9250929050565b610e1381610cb8565b8114610e1d575f5ffd5b50565b5f81359050610e2e81610e0a565b92915050565b5f5f5f5f60608587031215610e4c57610e4b610b36565b5b5f610e5987828801610b65565b945050602085013567ffffffffffffffff811115610e7a57610e79610b3a565b5b610e8687828801610db5565b93509350506040610e9987828801610e20565b91505092959194509250565b7f496e76616c69642076657273696f6e00000000000000000000000000000000005f82015250565b5f610ed9600f83610c52565b9150610ee482610ea5565b602082019050919050565b5f6020820190508181035f830152610f0681610ecd565b9050919050565b7f4e487b71000000000000000000000000000000000000000000000000000000005f52601160045260245ffd5b5f610f4482610bd7565b9150610f4f83610bd7565b9250828203905081811115610f6757610f66610f0d565b5b92915050565b7f4e487b71000000000000000000000000000000000000000000000000000000005f52603260045260245ffd5b7f4e487b71000000000000000000000000000000000000000000000000000000005f52602260045260245ffd5b5f6002820490506001821680610fde57607f821691505b602082108103610ff157610ff0610f9a565b5b50919050565b7f4e6f207665726966696564204b594300000000000000000000000000000000005f82015250565b5f61102b600f83610c52565b915061103682610ff7565b602082019050919050565b5f6020820190508181035f8301526110588161101f565b9050919050565b5f6020820190506110725f830184610cdf565b92915050565b61108181610ba4565b811461108b575f5ffd5b50565b5f8151905061109c81611078565b92915050565b5f602082840312156110b7576110b6610b36565b5b5f6110c48482850161108e565b91505092915050565b7f4e6f7420616e20617574686f72697a65642076657269666965720000000000005f82015250565b5f611101601a83610c52565b915061110c826110cd565b602082019050919050565b5f6020820190508181035f83015261112e816110f5565b9050919050565b7f5a65726f206164647265737320757365720000000000000000000000000000005f82015250565b5f611169601183610c52565b915061117482611135565b602082019050919050565b5f6020820190508181035f8301526111968161115d565b9050919050565b7f456d7074792049504653204349440000000000000000000000000000000000005f82015250565b5f6111d1600e83610c52565b91506111dc8261119d565b602082019050919050565b5f6020820190508181035f8301526111fe816111c5565b9050919050565b7f456d7074792064617461206861736800000000000000000000000000000000005f82015250565b5f611239600f83610c52565b915061124482611205565b602082019050919050565b5f6020820190508181035f8301526112668161122d565b9050919050565b5f61127782610bd7565b915061128283610bd7565b925082820190508082111561129a57611299610f0d565b5b92915050565b7f4e487b71000000000000000000000000000000000000000000000000000000005f52604160045260245ffd5b5f819050815f5260205f209050919050565b5f6020601f8301049050919050565b5f82821b905092915050565b5f600883026113297fffffffffffffffffffffffffffffffffffffffffffffffffffffffffffffffff826112ee565b61133386836112ee565b95508019841693508086168417925050509392505050565b5f61136561136061135b84610bd7565b610ac2565b610bd7565b9050919050565b5f819050919050565b61137e8361134b565b61139261138a8261136c565b8484546112fa565b825550505050565b5f5f905090565b6113a961139a565b6113b4818484611375565b505050565b5f5b828110156113da576113cf5f8284016113a1565b6001810190506113bb565b505050565b601f82111561142d578282111561142c576113f9816112cd565b611402836112df565b61140b856112df565b6020861015611418575f90505b808301611427828403826113b9565b505050505b5b505050565b5f82821c905092915050565b5f61144d5f1984600802611432565b1980831691505092915050565b5f611465838361143e565b9150826002028217905092915050565b61147e82610c48565b67ffffffffffffffff811115611497576114966112a0565b5b6114a18254610fc7565b6114ac8282856113df565b5f60209050601f8311600181146114dd575f84156114cb578287015190505b6114d5858261145a565b86555061153c565b601f1984166114eb866112cd565b5f5b82811015611512578489015182556001820191506020850194506020810190506114ed565b8683101561152f578489015161152b601f89168261143e565b8355505b6001600288020188555050505b505050505050565b828183375f83830152505050565b5f61155d8385610c52565b935061156a838584611544565b61157383610c70565b840190509392505050565b5f6060820190508181035f830152611597818688611552565b90506115a66020830185610cc1565b6115b36040830184610cd0565b9594505050505056fea26469706673582212207b7d4eaf32a5a2cebc996f3db0f9d13a1b8665b79945bc7e35024aecc76d2ba564736f6c63430008230033","linkReferences":{}},"methodIdentifiers":{"anchorKYC(address,string,bytes32)":"ed41b4e9","getKYCVersion(address,uint256)":"2b30f1ac","getLatestKYC(address)":"32658652","getVersionCount(address)":"b6f76098","hasVerifiedKYC(address)":"05ce2f4d","roleManager()":"00435da5"},"id":16}