{"abi":[{"type":"constructor","inputs":[],"stateMutability":"nonpayable"},{"type":"function","name":"admin","inputs":[],"outputs":[{"name":"","type":"address","internalType":"address"}],"stateMutability":"view"},{"type":"function","name":"getAllBanks","inputs":[],"outputs":[{"name":"","type":"address[]","internalType":"address[]"}],"stateMutability":"view"},{"type":"function","name":"getAllVerifiers","inputs":[],"outputs":[{"name":"","type":"address[]","internalType":"address[]"}],"stateMutability":"view"},{"type":"function","name":"getBankAt","inputs":[{"name":"index","type":"uint256","internalType":"uint256"}],"outputs":[{"name":"","type":"address","internalType":"address"}],"stateMutability":"view"},{"type":"function","name":"getBankCount","inputs":[],"outputs":[{"name":"","type":"uint256","internalType":"uint256"}],"stateMutability":"view"},{"type":"function","name":"getRole","inputs":[{"name":"user","type":"address","internalType":"address"}],"outputs":[{"name":"","type":"uint8","internalType":"enum RoleManager.Role"}],"stateMutability":"view"},{"type":"function","name":"getVerifierAt","inputs":[{"name":"index","type":"uint256","internalType":"uint256"}],"outputs":[{"name":"","type":"address","internalType":"address"}],"stateMutability":"view"},{"type":"function","name":"getVerifierCount","inputs":[],"outputs":[{"name":"","type":"uint256","internalType":"uint256"}],"stateMutability":"view"},{"type":"function","name":"isAdmin","inputs":[{"name":"user","type":"address","internalType":"address"}],"outputs":[{"name":"","type":"bool","internalType":"bool"}],"stateMutability":"view"},{"type":"function","name":"isBank","inputs":[{"name":"user","type":"address","internalType":"address"}],"outputs":[{"name":"","type":"bool","internalType":"bool"}],"stateMutability":"view"},{"type":"function","name":"isVerifier","inputs":[{"name":"user","type":"address","internalType":"address"}],"outputs":[{"name":"","type":"bool","internalType":"bool"}],"stateMutability":"view"},{"type":"function","name":"setBank","inputs":[{"name":"bank","type":"address","internalType":"address"},{"name":"status","type":"bool","internalType":"bool"}],"outputs":[],"stateMutability":"nonpayable"},{"type":"function","name":"setVerifier","inputs":[{"name":"verifier","type":"address","internalType":"address"},{"name":"status","type":"bool","internalType":"bool"}],"outputs":[],"stateMutability":"nonpayable"},{"type":"function","name":"transferAdmin","inputs":[{"name":"newAdmin","type":"address","internalType":"address"}],"outputs":[],"stateMutability":"nonpayable"},{"type":"event","name":"AdminTransferred","inputs":[{"name":"previousAdmin","type":"address","indexed":true,"internalType":"address"},{"name":"newAdmin","type":"address","indexed":true,"internalType":"address"}],"anonymous":false},{"type":"event","name":"BankUpdated","inputs":[{"name":"bank","type":"address","indexed":true,"internalType":"address"},{"name":"status","type":"bool","indexed":false,"internalType":"bool"}],"anonymous":false},{"type":"event","name":"VerifierUpdated","inputs":[{"name":"verifier","type":"address","indexed":true,"internalType":"address"},{"name":"status","type":"bool","indexed":false,"internalType":"bool"}],"anonymous":false}],"bytecode":{"object":"0x6080604052348015600e575f5ffd5b50335f5f6101000a81548173ffffffffffffffffffffffffffffffffffffffff021916908373ffffffffffffffffffffffffffffffffffffffff1602179055506118e48061005b5f395ff3fe608060405234801561000f575f5ffd5b50600436106100e8575f3560e01c8063951c8a071161008a578063b9c688a711610064578063b9c688a71461026e578063ec676a491461028c578063f851a440146102bc578063fd263390146102da576100e8565b8063951c8a0714610216578063ac9b567114610234578063af8d155514610250576100e8565b806333105218116100c6578063331052181461016a578063442767331461019a57806375829def146101ca5780638d7b0946146101e6576100e8565b806320977340146100ec57806324d7806c1461011c5780632e44715d1461014c575b5f5ffd5b610106600480360381019061010191906112de565b6102f6565b6040516101139190611348565b60405180910390f35b6101366004803603810190610131919061138b565b610381565b60405161014391906113d0565b60405180910390f35b6101546103d8565b60405161016191906113f8565b60405180910390f35b610184600480360381019061017f919061138b565b6103e4565b60405161019191906113d0565b60405180910390f35b6101b460048036038101906101af919061138b565b610436565b6040516101c19190611484565b60405180910390f35b6101e460048036038101906101df919061138b565b61054c565b005b61020060048036038101906101fb91906112de565b610704565b60405161020d9190611348565b60405180910390f35b61021e61078f565b60405161022b9190611554565b60405180910390f35b61024e6004803603810190610249919061159e565b61081a565b005b610258610b5a565b6040516102659190611554565b60405180910390f35b610276610be5565b60405161028391906113f8565b60405180910390f35b6102a660048036038101906102a1919061138b565b610bf1565b6040516102b391906113d0565b60405180910390f35b6102c4610c43565b6040516102d19190611348565b60405180910390f35b6102f460048036038101906102ef919061159e565b610c67565b005b5f600380549050821061033e576040517f08c379a000000000000000000000000000000000000000000000000000000000815260040161033590611636565b60405180910390fd5b6003828154811061035257610351611654565b5b905f5260205f20015f9054906101000a900473ffffffffffffffffffffffffffffffffffffffff169050919050565b5f5f5f9054906101000a900473ffffffffffffffffffffffffffffffffffffffff1673ffffffffffffffffffffffffffffffffffffffff168273ffffffffffffffffffffffffffffffffffffffff16149050919050565b5f600480549050905090565b5f60015f8373ffffffffffffffffffffffffffffffffffffffff1673ffffffffffffffffffffffffffffffffffffffff1681526020019081526020015f205f9054906101000a900460ff169050919050565b5f5f5f9054906101000a900473ffffffffffffffffffffffffffffffffffffffff1673ffffffffffffffffffffffffffffffffffffffff168273ffffffffffffffffffffffffffffffffffffffff16036104935760019050610547565b60015f8373ffffffffffffffffffffffffffffffffffffffff1673ffffffffffffffffffffffffffffffffffffffff1681526020019081526020015f205f9054906101000a900460ff16156104eb5760029050610547565b60025f8373ffffffffffffffffffffffffffffffffffffffff1673ffffffffffffffffffffffffffffffffffffffff1681526020019081526020015f205f9054906101000a900460ff16156105435760039050610547565b5f90505b919050565b5f5f9054906101000a900473ffffffffffffffffffffffffffffffffffffffff1673ffffffffffffffffffffffffffffffffffffffff163373ffffffffffffffffffffffffffffffffffffffff16146105da576040517f08c379a00000000000000000000000000000000000000000000000000000000081526004016105d1906116cb565b60405180910390fd5b5f73ffffffffffffffffffffffffffffffffffffffff168173ffffffffffffffffffffffffffffffffffffffff1603610648576040517f08c379a000000000000000000000000000000000000000000000000000000000815260040161063f90611733565b60405180910390fd5b8073ffffffffffffffffffffffffffffffffffffffff165f5f9054906101000a900473ffffffffffffffffffffffffffffffffffffffff1673ffffffffffffffffffffffffffffffffffffffff167ff8ccb027dfcd135e000e9d45e6cc2d662578a8825d4c45b5e32e0adf67e79ec660405160405180910390a3805f5f6101000a81548173ffffffffffffffffffffffffffffffffffffffff021916908373ffffffffffffffffffffffffffffffffffffffff16021790555050565b5f600480549050821061074c576040517f08c379a000000000000000000000000000000000000000000000000000000000815260040161074390611636565b60405180910390fd5b600482815481106107605761075f611654565b5b905f5260205f20015f9054906101000a900473ffffffffffffffffffffffffffffffffffffffff169050919050565b6060600480548060200260200160405190810160405280929190818152602001828054801561081057602002820191905f5260205f20905b815f9054906101000a900473ffffffffffffffffffffffffffffffffffffffff1673ffffffffffffffffffffffffffffffffffffffff16815260200190600101908083116107c7575b5050505050905090565b5f5f9054906101000a900473ffffffffffffffffffffffffffffffffffffffff1673ffffffffffffffffffffffffffffffffffffffff163373ffffffffffffffffffffffffffffffffffffffff16146108a8576040517f08c379a000000000000000000000000000000000000000000000000000000000815260040161089f906116cb565b60405180910390fd5b5f73ffffffffffffffffffffffffffffffffffffffff168273ffffffffffffffffffffffffffffffffffffffff1603610916576040517f08c379a000000000000000000000000000000000000000000000000000000000815260040161090d90611733565b60405180910390fd5b60025f8373ffffffffffffffffffffffffffffffffffffffff1673ffffffffffffffffffffffffffffffffffffffff1681526020019081526020015f205f9054906101000a900460ff16156109a0576040517f08c379a00000000000000000000000000000000000000000000000000000000081526004016109979061179b565b60405180910390fd5b8015610a5a5760015f8373ffffffffffffffffffffffffffffffffffffffff1673ffffffffffffffffffffffffffffffffffffffff1681526020019081526020015f205f9054906101000a900460ff16610a5557600382908060018154018082558091505060019003905f5260205f20015f9091909190916101000a81548173ffffffffffffffffffffffffffffffffffffffff021916908373ffffffffffffffffffffffffffffffffffffffff1602179055505b610ab4565b60015f8373ffffffffffffffffffffffffffffffffffffffff1673ffffffffffffffffffffffffffffffffffffffff1681526020019081526020015f205f9054906101000a900460ff1615610ab357610ab282610fa7565b5b5b8060015f8473ffffffffffffffffffffffffffffffffffffffff1673ffffffffffffffffffffffffffffffffffffffff1681526020019081526020015f205f6101000a81548160ff0219169083151502179055508173ffffffffffffffffffffffffffffffffffffffff167fba5f7031ad83095931ee4b5138591db2dc3cfc56178367622fa4b05c2efad23182604051610b4e91906113d0565b60405180910390a25050565b60606003805480602002602001604051908101604052809291908181526020018280548015610bdb57602002820191905f5260205f20905b815f9054906101000a900473ffffffffffffffffffffffffffffffffffffffff1673ffffffffffffffffffffffffffffffffffffffff1681526020019060010190808311610b92575b5050505050905090565b5f600380549050905090565b5f60025f8373ffffffffffffffffffffffffffffffffffffffff1673ffffffffffffffffffffffffffffffffffffffff1681526020019081526020015f205f9054906101000a900460ff169050919050565b5f5f9054906101000a900473ffffffffffffffffffffffffffffffffffffffff1681565b5f5f9054906101000a900473ffffffffffffffffffffffffffffffffffffffff1673ffffffffffffffffffffffffffffffffffffffff163373ffffffffffffffffffffffffffffffffffffffff1614610cf5576040517f08c379a0000000000000000000000000000000000000000000000000000000008152600401610cec906116cb565b60405180910390fd5b5f73ffffffffffffffffffffffffffffffffffffffff168273ffffffffffffffffffffffffffffffffffffffff1603610d63576040517f08c379a0000000000000000000000000000000000000000000000000000000008152600401610d5a90611733565b60405180910390fd5b60015f8373ffffffffffffffffffffffffffffffffffffffff1673ffffffffffffffffffffffffffffffffffffffff1681526020019081526020015f205f9054906101000a900460ff1615610ded576040517f08c379a0000000000000000000000000000000000000000000000000000000008152600401610de490611803565b60405180910390fd5b8015610ea75760025f8373ffffffffffffffffffffffffffffffffffffffff1673ffffffffffffffffffffffffffffffffffffffff1681526020019081526020015f205f9054906101000a900460ff16610ea257600482908060018154018082558091505060019003905f5260205f20015f9091909190916101000a81548173ffffffffffffffffffffffffffffffffffffffff021916908373ffffffffffffffffffffffffffffffffffffffff1602179055505b610f01565b60025f8373ffffffffffffffffffffffffffffffffffffffff1673ffffffffffffffffffffffffffffffffffffffff1681526020019081526020015f205f9054906101000a900460ff1615610f0057610eff82611127565b5b5b8060025f8473ffffffffffffffffffffffffffffffffffffffff1673ffffffffffffffffffffffffffffffffffffffff1681526020019081526020015f205f6101000a81548160ff0219169083151502179055508173ffffffffffffffffffffffffffffffffffffffff167f49967940d5460510173d957653e12112c45078d89c4091daa5a4be034ab01b2182604051610f9b91906113d0565b60405180910390a25050565b5f60038054905090505f5f90505b81811015611122578273ffffffffffffffffffffffffffffffffffffffff1660038281548110610fe857610fe7611654565b5b905f5260205f20015f9054906101000a900473ffffffffffffffffffffffffffffffffffffffff1673ffffffffffffffffffffffffffffffffffffffff160361111557600360018361103a919061184e565b8154811061104b5761104a611654565b5b905f5260205f20015f9054906101000a900473ffffffffffffffffffffffffffffffffffffffff166003828154811061108757611086611654565b5b905f5260205f20015f6101000a81548173ffffffffffffffffffffffffffffffffffffffff021916908373ffffffffffffffffffffffffffffffffffffffff16021790555060038054806110de576110dd611881565b5b600190038181905f5260205f20015f6101000a81549073ffffffffffffffffffffffffffffffffffffffff02191690559055611122565b8080600101915050610fb5565b505050565b5f60048054905090505f5f90505b818110156112a2578273ffffffffffffffffffffffffffffffffffffffff166004828154811061116857611167611654565b5b905f5260205f20015f9054906101000a900473ffffffffffffffffffffffffffffffffffffffff1673ffffffffffffffffffffffffffffffffffffffff16036112955760046001836111ba919061184e565b815481106111cb576111ca611654565b5b905f5260205f20015f9054906101000a900473ffffffffffffffffffffffffffffffffffffffff166004828154811061120757611206611654565b5b905f5260205f20015f6101000a81548173ffffffffffffffffffffffffffffffffffffffff021916908373ffffffffffffffffffffffffffffffffffffffff160217905550600480548061125e5761125d611881565b5b600190038181905f5260205f20015f6101000a81549073ffffffffffffffffffffffffffffffffffffffff021916905590556112a2565b8080600101915050611135565b505050565b5f5ffd5b5f819050919050565b6112bd816112ab565b81146112c7575f5ffd5b50565b5f813590506112d8816112b4565b92915050565b5f602082840312156112f3576112f26112a7565b5b5f611300848285016112ca565b91505092915050565b5f73ffffffffffffffffffffffffffffffffffffffff82169050919050565b5f61133282611309565b9050919050565b61134281611328565b82525050565b5f60208201905061135b5f830184611339565b92915050565b61136a81611328565b8114611374575f5ffd5b50565b5f8135905061138581611361565b92915050565b5f602082840312156113a05761139f6112a7565b5b5f6113ad84828501611377565b91505092915050565b5f8115159050919050565b6113ca816113b6565b82525050565b5f6020820190506113e35f8301846113c1565b92915050565b6113f2816112ab565b82525050565b5f60208201905061140b5f8301846113e9565b92915050565b7f4e487b71000000000000000000000000000000000000000000000000000000005f52602160045260245ffd5b6004811061144f5761144e611411565b5b50565b5f81905061145f8261143e565b919050565b5f61146e82611452565b9050919050565b61147e81611464565b82525050565b5f6020820190506114975f830184611475565b92915050565b5f81519050919050565b5f82825260208201905092915050565b5f819050602082019050919050565b6114cf81611328565b82525050565b5f6114e083836114c6565b60208301905092915050565b5f602082019050919050565b5f6115028261149d565b61150c81856114a7565b9350611517836114b7565b805f5b8381101561154757815161152e88826114d5565b9750611539836114ec565b92505060018101905061151a565b5085935050505092915050565b5f6020820190508181035f83015261156c81846114f8565b905092915050565b61157d816113b6565b8114611587575f5ffd5b50565b5f8135905061159881611574565b92915050565b5f5f604083850312156115b4576115b36112a7565b5b5f6115c185828601611377565b92505060206115d28582860161158a565b9150509250929050565b5f82825260208201905092915050565b7f496e76616c696420696e646578000000000000000000000000000000000000005f82015250565b5f611620600d836115dc565b915061162b826115ec565b602082019050919050565b5f6020820190508181035f83015261164d81611614565b9050919050565b7f4e487b71000000000000000000000000000000000000000000000000000000005f52603260045260245ffd5b7f4f6e6c792061646d696e000000000000000000000000000000000000000000005f82015250565b5f6116b5600a836115dc565b91506116c082611681565b602082019050919050565b5f6020820190508181035f8301526116e2816116a9565b9050919050565b7f5a65726f206164647265737300000000000000000000000000000000000000005f82015250565b5f61171d600c836115dc565b9150611728826116e9565b602082019050919050565b5f6020820190508181035f83015261174a81611711565b9050919050565b7f57616c6c657420616c72656164792062616e6b000000000000000000000000005f82015250565b5f6117856013836115dc565b915061179082611751565b602082019050919050565b5f6020820190508181035f8301526117b281611779565b9050919050565b7f57616c6c657420616c72656164792076657269666965720000000000000000005f82015250565b5f6117ed6017836115dc565b91506117f8826117b9565b602082019050919050565b5f6020820190508181035f83015261181a816117e1565b9050919050565b7f4e487b71000000000000000000000000000000000000000000000000000000005f52601160045260245ffd5b5f611858826112ab565b9150611863836112ab565b925082820390508181111561187b5761187a611821565b5b92915050565b7f4e487b71000000000000000000000000000000000000000000000000000000005f52603160045260245ffdfea2646970667358221220f129a832194892b4b96762b3afd564034ede4094541a7e32b18ab8f626c2818e64736f6c63430008230033","linkReferences":{}},"methodIdentifiers":{"admin()":"f851a440","getAllBanks()":"951c8a07","getAllVerifiers()":"af8d1555","getBankAt(uint256)":"8d7b0946","getBankCount()":"2e44715d","getRole(address)":"44276733","getVerifierAt(uint256)":"20977340","getVerifierCount()":"b9c688a7","isAdmin(address)":"24d7806c","isBank(address)":"ec676a49","isVerifier(address)":"33105218","setBank(address,bool)":"fd263390","setVerifier(address,bool)":"ac9b5671","transferAdmin(address)":"75829def"},"id":22}