{"abi":[{"type":"constructor","inputs":[],"stateMutability":"nonpayable"},{"type":"function","name":"admin","inputs":[],"outputs":[{"name":"","type":"address","internalType":"address"}],"stateMutability":"view"},{"type":"function","name":"getRole","inputs":[{"name":"user","type":"address","internalType":"address"}],"outputs":[{"name":"","type":"uint8","internalType":"enum RoleManager.Role"}],"stateMutability":"view"},{"type":"function","name":"isAdmin","inputs":[{"name":"user","type":"address","internalType":"address"}],"outputs":[{"name":"","type":"bool","internalType":"bool"}],"stateMutability":"view"},{"type":"function","name":"isBank","inputs":[{"name":"user","type":"address","internalType":"address"}],"outputs":[{"name":"","type":"bool","internalType":"bool"}],"stateMutability":"view"},{"type":"function","name":"isVerifier","inputs":[{"name":"user","type":"address","internalType":"address"}],"outputs":[{"name":"","type":"bool","internalType":"bool"}],"stateMutability":"view"},{"type":"function","name":"setBank","inputs":[{"name":"bank","type":"address","internalType":"address"},{"name":"status","type":"bool","internalType":"bool"}],"outputs":[],"stateMutability":"nonpayable"},{"type":"function","name":"setVerifier","inputs":[{"name":"verifier","type":"address","internalType":"address"},{"name":"status","type":"bool","internalType":"bool"}],"outputs":[],"stateMutability":"nonpayable"},{"type":"function","name":"transferAdmin","inputs":[{"name":"newAdmin","type":"address","internalType":"address"}],"outputs":[],"stateMutability":"nonpayable"},{"type":"event","name":"AdminTransferred","inputs":[{"name":"previousAdmin","type":"address","indexed":true,"internalType":"address"},{"name":"newAdmin","type":"address","indexed":true,"internalType":"address"}],"anonymous":false},{"type":"event","name":"BankUpdated","inputs":[{"name":"bank","type":"address","indexed":true,"internalType":"address"},{"name":"status","type":"bool","indexed":false,"internalType":"bool"}],"anonymous":false},{"type":"event","name":"VerifierUpdated","inputs":[{"name":"verifier","type":"address","indexed":true,"internalType":"address"},{"name":"status","type":"bool","indexed":false,"internalType":"bool"}],"anonymous":false}],"bytecode":{"object":"0x6080604052348015600e575f5ffd5b50335f5f6101000a81548173ffffffffffffffffffffffffffffffffffffffff021916908373ffffffffffffffffffffffffffffffffffffffff160217905550610b2f8061005b5f395ff3fe608060405234801561000f575f5ffd5b5060043610610086575f3560e01c8063ac9b567111610059578063ac9b567114610136578063ec676a4914610152578063f851a44014610182578063fd263390146101a057610086565b806324d7806c1461008a57806333105218146100ba57806344276733146100ea57806375829def1461011a575b5f5ffd5b6100a4600480360381019061009f9190610879565b6101bc565b6040516100b191906108be565b60405180910390f35b6100d460048036038101906100cf9190610879565b610213565b6040516100e191906108be565b60405180910390f35b61010460048036038101906100ff9190610879565b610265565b604051610111919061094a565b60405180910390f35b610134600480360381019061012f9190610879565b61037b565b005b610150600480360381019061014b919061098d565b6104ed565b005b61016c60048036038101906101679190610879565b610649565b60405161017991906108be565b60405180910390f35b61018a61069b565b60405161019791906109da565b60405180910390f35b6101ba60048036038101906101b5919061098d565b6106bf565b005b5f5f5f9054906101000a900473ffffffffffffffffffffffffffffffffffffffff1673ffffffffffffffffffffffffffffffffffffffff168273ffffffffffffffffffffffffffffffffffffffff16149050919050565b5f60015f8373ffffffffffffffffffffffffffffffffffffffff1673ffffffffffffffffffffffffffffffffffffffff1681526020019081526020015f205f9054906101000a900460ff169050919050565b5f5f5f9054906101000a900473ffffffffffffffffffffffffffffffffffffffff1673ffffffffffffffffffffffffffffffffffffffff168273ffffffffffffffffffffffffffffffffffffffff16036102c25760019050610376565b60015f8373ffffffffffffffffffffffffffffffffffffffff1673ffffffffffffffffffffffffffffffffffffffff1681526020019081526020015f205f9054906101000a900460ff161561031a5760029050610376565b60025f8373ffffffffffffffffffffffffffffffffffffffff1673ffffffffffffffffffffffffffffffffffffffff1681526020019081526020015f205f9054906101000a900460ff16156103725760039050610376565b5f90505b919050565b610384336101bc565b6103c3576040517f08c379a00000000000000000000000000000000000000000000000000000000081526004016103ba90610a73565b60405180910390fd5b5f73ffffffffffffffffffffffffffffffffffffffff168173ffffffffffffffffffffffffffffffffffffffff1603610431576040517f08c379a000000000000000000000000000000000000000000000000000000000815260040161042890610adb565b60405180910390fd5b8073ffffffffffffffffffffffffffffffffffffffff165f5f9054906101000a900473ffffffffffffffffffffffffffffffffffffffff1673ffffffffffffffffffffffffffffffffffffffff167ff8ccb027dfcd135e000e9d45e6cc2d662578a8825d4c45b5e32e0adf67e79ec660405160405180910390a3805f5f6101000a81548173ffffffffffffffffffffffffffffffffffffffff021916908373ffffffffffffffffffffffffffffffffffffffff16021790555050565b6104f6336101bc565b610535576040517f08c379a000000000000000000000000000000000000000000000000000000000815260040161052c90610a73565b60405180910390fd5b5f73ffffffffffffffffffffffffffffffffffffffff168273ffffffffffffffffffffffffffffffffffffffff16036105a3576040517f08c379a000000000000000000000000000000000000000000000000000000000815260040161059a90610adb565b60405180910390fd5b8060015f8473ffffffffffffffffffffffffffffffffffffffff1673ffffffffffffffffffffffffffffffffffffffff1681526020019081526020015f205f6101000a81548160ff0219169083151502179055508173ffffffffffffffffffffffffffffffffffffffff167fba5f7031ad83095931ee4b5138591db2dc3cfc56178367622fa4b05c2efad2318260405161063d91906108be565b60405180910390a25050565b5f60025f8373ffffffffffffffffffffffffffffffffffffffff1673ffffffffffffffffffffffffffffffffffffffff1681526020019081526020015f205f9054906101000a900460ff169050919050565b5f5f9054906101000a900473ffffffffffffffffffffffffffffffffffffffff1681565b6106c8336101bc565b610707576040517f08c379a00000000000000000000000000000000000000000000000000000000081526004016106fe90610a73565b60405180910390fd5b5f73ffffffffffffffffffffffffffffffffffffffff168273ffffffffffffffffffffffffffffffffffffffff1603610775576040517f08c379a000000000000000000000000000000000000000000000000000000000815260040161076c90610adb565b60405180910390fd5b8060025f8473ffffffffffffffffffffffffffffffffffffffff1673ffffffffffffffffffffffffffffffffffffffff1681526020019081526020015f205f6101000a81548160ff0219169083151502179055508173ffffffffffffffffffffffffffffffffffffffff167f49967940d5460510173d957653e12112c45078d89c4091daa5a4be034ab01b218260405161080f91906108be565b60405180910390a25050565b5f5ffd5b5f73ffffffffffffffffffffffffffffffffffffffff82169050919050565b5f6108488261081f565b9050919050565b6108588161083e565b8114610862575f5ffd5b50565b5f813590506108738161084f565b92915050565b5f6020828403121561088e5761088d61081b565b5b5f61089b84828501610865565b91505092915050565b5f8115159050919050565b6108b8816108a4565b82525050565b5f6020820190506108d15f8301846108af565b92915050565b7f4e487b71000000000000000000000000000000000000000000000000000000005f52602160045260245ffd5b60048110610915576109146108d7565b5b50565b5f81905061092582610904565b919050565b5f61093482610918565b9050919050565b6109448161092a565b82525050565b5f60208201905061095d5f83018461093b565b92915050565b61096c816108a4565b8114610976575f5ffd5b50565b5f8135905061098781610963565b92915050565b5f5f604083850312156109a3576109a261081b565b5b5f6109b085828601610865565b92505060206109c185828601610979565b9150509250929050565b6109d48161083e565b82525050565b5f6020820190506109ed5f8301846109cb565b92915050565b5f82825260208201905092915050565b7f4f6e6c792061646d696e2063616e20706572666f726d207468697320616374695f8201527f6f6e000000000000000000000000000000000000000000000000000000000000602082015250565b5f610a5d6022836109f3565b9150610a6882610a03565b604082019050919050565b5f6020820190508181035f830152610a8a81610a51565b9050919050565b7f5a65726f206164647265737300000000000000000000000000000000000000005f82015250565b5f610ac5600c836109f3565b9150610ad082610a91565b602082019050919050565b5f6020820190508181035f830152610af281610ab9565b905091905056fea2646970667358221220ef7c74a3ca1812d1a3e08ad19730cfbd9e8a782810bbb717e3afeaf2bfe2156164736f6c63430008230033","linkReferences":{}},"methodIdentifiers":{"admin()":"f851a440","getRole(address)":"44276733","isAdmin(address)":"24d7806c","isBank(address)":"ec676a49","isVerifier(address)":"33105218","setBank(address,bool)":"fd263390","setVerifier(address,bool)":"ac9b5671","transferAdmin(address)":"75829def"},"id":17}